:0A0000008031022888018731612F4A
:100EC200F60120008731872FFF3021008C008E0130
:100ED2001E119E101E10033023008C0021009E1351
:100EE2001D143C302500930011309100FF3020008A
:100EF2009B0025001E109E109501200091101C10D1
:100F02009C101C15023023009500080087316527CC
:100F120087318B2F230095188F2F902FB72F210009
:100F22001C083F39F4000230F435890B952F1B0859
:100F3200F5000630F536890B9B2F750874052300E2
:100F4200930021001C08F4000630F436890BA62F0A
:100F52007408230094000030761801309100920149
:100F620055309600AA3096009514B72F21009D188F
:100F7200BB2FBC2F8B2F761CBF2FC02FE22F1C083C
:100F82002500910021001B08F4000730F436890B7C
:100F9200C72F7418CD2FD02F25009316D22F2500DE
:100FA200931221001B08F4000630F436890BD62F69
:100FB2007418DC2FDF2F25001316E12F25001312E2
:100FC200E72F21001C0820009B00E72F7618EA2F4C
:100FD200ED2F23000C14EF2F23000C100130F60626
:100FE2007618F42FF72F23008C14F92F23008C107E
:0E0FF20021009D148B2F8B2F8B2F8031022816
:020000040001F9
:02000E00D4DD3F
:00000001FF
