:100000000F28022A072A0C2ADE00030E8312A400FE
:100010000408A5000A08A6005F08A7002329831684
:10002000FF2390008301402B8312B5010314B50D0B
:100030000A30A8000030A9004708BB00BC013B08FB
:10004000AA003C08AB00AE2083122908B701B7070D
:100050002808B601B6071030FB2202308312BB001D
:100060003B08B5000A30A8000030A9004708BC00D2
:10007000BD013C08AA003D08AB008C218312290871
:10008000B701B7072808B601B6071030FB22831264
:10009000B5010314B50D0A30A8000030A9004808C6
:1000A000BB00BC013B08AA003C08AB00AE20831299
:1000B0002908B701B7072808B601B6071030FB2298
:1000C00002308312BB003B08B5000A30A8000030A4
:1000D000A9004808BC00BD013C08AA003D08AB00CF
:1000E0008C2183122908B701B7072808B601B60783
:1000F0001030FB228312B5010314B50D0A30A8009D
:100100000030A9004908BB00BC013B08AA003C081C
:10011000AB00AE2083122908B701B7072808B60143
:10012000B6071030FB2202308312BB003B08B5003B
:100130000A30A8000030A9004908BC00BD013C08F5
:10014000AA003D08AB008C2183122908B701B7072C
:100150002808B601B6071030FB2208008312AE0152
:10016000A91FB328B428BD28A809A909A80A0319FA
:10017000A90AAE010314AE0DBD28AB1FC028C128CB
:10018000CB28AA09AB09AA0A0319AB0A0130AC00B3
:100190002C08AE06CB28AF01B001290828040319AA
:1001A000D228D3281129AD010314AD0DE328013065
:1001B0000310A80DA90DFF3E031DD8280130AC0087
:1001C0002C08AD07E328A91FE628E728D728E92847
:1001D000E92801300310AF0DB00DFF3E031DEA28E2
:1001E00029082B02031DF62828082A02031CF928D7
:1001F000FA2802292808AA022908031CAB03AB022B
:100200002F14022901300310A90CA80CFF3E031D76
:1002100003290130AD02031D0E290F29E9281129F8
:1002200011292E08031D15291B29AF09B009AF0A92
:100230000319B00A1B293008A901A9072F08A80132
:10024000A8072229080083160C1C272928295129D0
:1002500083120C1C2C292D2951290130A3002308BD
:10026000C90749083C3A031D362937295129C901D4
:100270000130A3002308C80748083C3A031D412960
:1002800042295129C8010130A3002308C7074708A4
:10029000183A031D4C294D295129C70151295129CB
:1002A00051290B1C542955297E2983128518592957
:1002B0005A295A2905185D295E296B29851C61294F
:1002C00062296B294A08013E0F39A3002308CA009E
:1002D00064301F236B29831285186F2970297E29AA
:1002E000051C732974297E294A08FF3E0F39A30093
:1002F0002308CA0064301F237E297E298B118B15A9
:1003000083122708DF0026088A0025088400240EAF
:100310008300DE0E5E0E09008312AE01AB1F912931
:1003200092299B29AA09AB09AA0A0319AB0AAE01B3
:100330000314AE0D9B29A91F9E299F29A529A80951
:10034000A909A80A0319A90AA52929082804031933
:10035000AA29AB29E129AD010314AD0DBB29013058
:100360000310A80DA90DFF3E031DB0290130AC00FC
:100370002C08AD07BB29A91FBE29BF29AF29C12958
:10038000C12929082B02031DC72928082A02031C9A
:10039000CA29CB29D2292808AA022908031CAB03A1
:1003A000AB02D22901300310A90CA80CFF3E031D9B
:1003B000D3290130AD02031DDE29DF29C129E1293E
:1003C000E1292E08031DE529EB29AA09AB09AA0A90
:1003D0000319AB0AEB292B08A901A9072A08A801D0
:1003E000A807F22908008312BF010314BF0D4E2A8B
:1003F0000518FB29FC291E2A851CFF29002A1E2A14
:10040000122A122A0130BE003E08C7074E2A0130C8
:10041000BE003E08C8074E2A0130BE003E08C9078C
:100420004E2A4E2A3F0884000330040203184E2A45
:1004300000308A000130040782004E2A8518212AE4
:10044000222A3E2A051C252A262A3E2A322A322A18
:100450000130C7024E2A0130C8024E2A0130C902BB
:100460004E2A4E2A3F0884000330040203184E2A05
:1004700003308A004630040782004E2A8518412A3C
:10048000422A4E2A0518452A462A4E2A0130BE0025
:100490003E08BF074E2A4E2A4E2A4E2A03303F02FC
:1004A000031C532A542AF829552A1420FF300E23FE
:1004B00008008312B3000511B401822A85112B08AC
:1004C000AF002C08B0002D08B1002E08B200340A8D
:1004D0006E2A0310B20CB10CB00CAF0CFF3E031D22
:1004E000692A2F18742A772A83120516792A83120B
:1004F0000512851514300E2301308312AF002F082A
:10050000B407822A33083402031C872A882A5E2A09
:10051000051514300E2383120511080083121010E4
:1005200000308E00C0308F0010140C30BF003F0828
:10053000B5000130B6000030B7001030FB22FF30AC
:1005400030230B308312BF003F08B5000830B600DF
:100550000030B7001030FB2209308312BF003F0883
:10056000B500FF30B6000030B7001030FB220800A5
:10057000E1228312C60114304602031CC02AC12A9C
:10058000C32ACE2ACE2A0130C4004408C60714303C
:100590004602031CCC2ACD2AC32ACE2A8E22F3215E
:1005A0008312C501D32A01308312C4004408C50751
:1005B000031DDB2ADC2AD32A1420D32AD32AD32AE8
:1005C0000F2883121013101290129015901410150A
:1005D00083160512851105110514851485168117DA
:1005E000FF30950083128C018B170B1783160C14A8
:1005F0001614961408008312BA003508B800B90121
:100600003808B900B80136083804AB003708390497
:10061000AC00AD01AE013A08592208008312A900CE
:10062000AA01172B0130A8002808AA07172B2A08AF
:10063000290203181C2B1D2B122B1E2B08008312C2
:10064000A100A201282B0130A0002008A207282B1E
:100650002208210203182D2B2E2B232B2F2B0800D1
:100660008312BE000A30BB003B08B5003E08BC0048
:10067000BD013C08B6003D08B7001030FB22080061
:10068000C701C801C901CA018301B82A282A2B2A37
:020690002E2A10
:02400E00CC31B3
:00000001FF
