:020000040000FA
:020000001028C6
:040002000034003492
:020008000900ED
:100020008316FF23900083128B138B1B1428C6208A
:10003000D42083120530A30085160000B520851258
:100040000000B52005160000B52005120000B520FF
:1000500085140000B52085100000B52005140000AF
:10006000B52005100000B52005140000B5200510CE
:100070000000B52085140000B52085100000B520D3
:1000800005160000B52005120000B52085160000F9
:10009000B52085120000B520A30B1C28D420B52064
:1000A0001030A3008516000005140000B52085124D
:1000B000000005100000BB2085160000051400009C
:1000C000B5208512000005100000BB20BB200516DE
:1000D000000085140000B520051200008510000006
:1000E000BB200516000085140000B5200512000095
:1000F00085100000BB20BB20A30B5228D420B520C4
:100100001030A3008516000085140000B52085126C
:10011000000085100000BB2085160000851400003B
:10012000B5208512000085100000BB20BB200516FD
:10013000000005140000B5200512000005100000A5
:10014000BB200516000005140000B52005120000B4
:1001500005100000BB20BB20A30B822819286430A7
:10016000A200BB20A20BB12808000A30A200BB20CD
:10017000A20BB72808006430A100C120A10BBD2844
:1001800008001F30A000A00BC328080083128501BF
:1001900007309900831681128117950196010C3062
:1001A00085009F01831208008512000005120000DF
:0A01B0008510000005100000080093
:0207FE009C3429
:02400E00E43F8D
:00000001FF
