:100000008031AF28FF3FFF3F803120007F08FB0099
:100010008B1E0B280C284E280B1D0F2810284E284D
:100020000B110F3095000430FC067C1D1828192890
:10003000A8280130A4070030A53D0030A63D0030BF
:10004000A73D2708260425042404031D2828292861
:10005000A8280130A0070030A13D0030A23D0030AB
:10006000A33D2308220421042004031D3828392835
:10007000A8280030A7000030A6000030A5000030FE
:10008000A4000030A3000030A2000030A100003026
:10009000A0006300A828A828A828A8288B1D5128FC
:1000A0005228A82827001308031D5728A828131C26
:1000B0005A285B285F2813100230FC065F28931C27
:1000C00062286328672893100130FC066728131DF7
:1000D0006A286B287F2813110530F0000030F100EA
:1000E0007D08013EF200003003180130F300813139
:1000F000882180317008FA007A08FD007F282700E7
:10010000931D8328842885289311131E8828892805
:100110009F2813120330F0000030F100200028085F
:10012000013EF200003003180130F30081318821D4
:1001300080317008FA007A082000A8009F28270064
:10014000931EA328A428A8289312A828A828A82882
:100150008031B22080317B082000FF000900880137
:1001600082317D2AFD08031DB628B728C628200045
:10017000A808031DBC28BD28C6287C18C028C12893
:10018000C628FC1CC428C528DA28C628FF30200051
:100190002306031DD528FF302206031DD528FF3076
:1001A0002106031DD528FF302006031DD828D92895
:1001B0006229DA280030A3000030A2000030A1003C
:1001C0000030A0000030A7000030A6000030A500DD
:1001D0000030A4006300872962298131E821803141
:1001E0007F3070067104031DF628F728F9287D2951
:1001F0007D297F3082315C2280317D297C1D01295F
:10020000022913298131E82180317F307006710481
:10021000031D0B290C290E297D297D29FF308231F0
:100220005C2280317D298131E821803171087004A0
:10023000031D1B291C291E297D297D29003082319F
:100240005C2280317D297D298131E8218031033094
:100250007106031D2D29FF307006031D3029312939
:1002600033297D297D29FF3082315C2280317D292F
:100270007C1D3B293C2950298131E8218031033004
:100280007106031D4529FF307006031D48294929C1
:100290004B297D297D29FF3082315C2280317D29E7
:1002A0008131E821803171087004031D58295929D2
:1002B0005B297D297D29003082315C2280317D29B6
:1002C0007D297D297D08013A0319ED28033A031998
:1002D0002429013A0319FE28073A031938297D29F0
:1002E0007D297C1D7429752977290E1587290E1102
:1002F000872987290E158729872920002808013A90
:1003000003197129033A03197A29872987290800D3
:10031000F601F31F8C298D299629F209F309F20AB7
:100320000319F30AF6010314F60D9629F11F992912
:100330009A29A029F009F109F00A0319F10AA02964
:10034000710870040319A529A629D629F5010314FB
:10035000F50DB4290130F035F10D890BAB290130D1
:10036000F4007408F507B429F11FB729B829AA29A0
:10037000BA29BA2971087302031DC02970087202D4
:10038000031CC329C429C9297008F2027108F33B70
:10039000C9290130F136F00C890BCA290130F50268
:1003A000031DD329D429BA29D629D6297608031DB5
:1003B000DA29E029F209F309F20A0319F30AE0291C
:1003C0007308F101F1077208F001F007E72908004E
:1003D00003102500131A03140030093DF200F30145
:1003E0000310931A03140030093DF400F5010130A5
:1003F000F435F50D890BF8291108F600F7010230E4
:10040000F635F70D890B002A74087604F800750894
:100410007704F90072087804F00073087904F10099
:10042000112A080020009A018B170B1721001914BC
:1004300099149911191699161917C7309500951323
:10044000FF3024008C008E01FF3021008C008E01D3
:100450008B15FF30270091009201FF3020009B0098
:100460003C30250093007F308231382282310800F1
:100470002000AA002A08A9000230A936890B3D2ACB
:1004800029082500910020002A18472A4A2A250019
:1004900013164C2A2500131220002A08A900013047
:1004A000A936890B502A2918562A592A250093164D
:1004B0005B2A250093120800F1007108F000023059
:1004C000F036890B602A7008250091007118692A9E
:1004D0006C2A250013166E2A250013127108F000ED
:1004E0000130F036890B712A7018772A7A2A250094
:1004F00093167C2A250093120800FC01FD01A0013F
:10050000A101A201A301A401A501A601A701A801BF
:10051000200082318B2A8231122282318F2A8F2A47
:100520008031AF28FF3FFF3FFF3FFF3FFF3FFF3FCF
:020000040001F9
:02000E00D4DD3F
:00000001FF
