:040000000CEF00F011
:10000800FACF28F0FBCF29F0E9CF2AF020ED16F03F
:04001800DCEF1EF00B
:100800003F065B4F666D7C277F67000061480053A1
:1008100000777C585E79713D76101E683837545CDD
:100820007367506D781C3E7E766E1B3031323334E8
:10083000353637383900803F72313FFE753E586398
:100840003D951D3CC5AE3A79213994803793A73543
:1008500056153400000000803FF0FFBEE2A93E8341
:1008600076BEAE2B3E3CC3BDD2133D78D3BB202019
:100870002020202020202020000020EE36F010EE46
:100880007DF0080EDECFE6FFE82EFCD700016D6F8D
:10089000000E00010001886F00016D5100016D6FB5
:1008A000000E00010001896F00016D51A4D291D1A9
:1008B000000188C06DF000016E6B6DBF6E07000116
:1008C0006D1F6E1F6D4B6E2B00016D5100010001FD
:1008D000892500016F6F000E0001000189BFFF0E26
:1008E00000016E210001706F00017D0E00016F2577
:1008F000D96E0001000E00017021DA6E800EDF1645
:1009000076D200010001882B000188C06DF0000143
:100910006E6B6DBF6E0700016D1F6E1F6D4B6E2BF2
:1009200000016D5100010001892500016F6F000E6B
:100930000001000189BFFF0E00016E210001706FF0
:1009400000017D0E00016F25D96E0001000E00012F
:100950007021DA6E000EDB8E4AD2000188C06DF085
:1009600000016E6B6DBF6E0700016D1F6E1F6D4B3A
:100970006E2B00016D5100010001892500016F6F90
:10098000000E0001000189BFFF0E00016E21000171
:10099000706F00017D0E00016F25D96E0001000E01
:1009A00000017021DA6E000188C071F00001726BE5
:1009B00071BF72070001711F721F714B722B000112
:1009C00071510001000189250001736F000E0001C3
:1009D000000189BFFF0E000172210001746F000148
:1009E0007D0E00017325E16E0001000E00017421EF
:1009F000E26EE750800B4009DF6EF9D10001000183
:100A0000895100010001606F0001616B000160BF4E
:100A10006107000E00010001636F010E0001626FAB
:100A2000000134EC1DF000010001605100010001E3
:100A30006B2500016D6F0001000161510001000193
:100A40006C2100016E6F00016D51F66EE96E070EAC
:100A5000EA6E00016E51EA6403D0EA6EEF5003D0F3
:100A6000F76E0800F55000016F6FB00E00016F25A2
:100A70000001706F0001716BFF0E00017123000E09
:100A800000017025F66E080E7121F76E0800F5CF93
:100A900072F0000188C073F00001746B73BF7407BB
:100AA0000001731F741F734B742B000173510001FD
:100AB000000189250001756F000E0001000189BF4A
:100AC000FF0E000174210001766F00017D0E000110
:100AD0007525D96E0001000E00017621DA6E000145
:100AE0007251DF1284D1000100018951000100011F
:100AF000606F0001616B000160BF6107000E0001C3
:100B00000001636F010E0001626F000134EC1DF003
:100B1000000100016051000100016B2500016D6FB3
:100B2000000100016151000100016C2100016E6FA4
:100B300000016D51F66EE96E070EEA6E00016E510E
:100B4000EA6403D0EA6EEF5003D0F76E0800F55068
:100B500000016F6FD00E00016F250001706F000162
:100B6000716BFF0E00017123000E00017025F66EFF
:100B7000080E7121F76E0800F5CF72F0000188C0F1
:100B800073F00001746B73BF74070001731F741F4F
:100B9000734B742B00017351000100018925000182
:100BA000756F000E0001000189BFFF0E0001742166
:100BB0000001766F00017D0E00017525D96E0001E0
:100BC000000E00017621DA6E00017251DF120FD1A2
:100BD0000ED100010001895100010001606F000188
:100BE000616B000160BF6107000E00010001636FCF
:100BF000010E0001626F000134EC1DF000010001E4
:100C00006051000100016B2500016D6F00010001C2
:100C10006151000100016C2100016E6F00016D51F6
:100C2000F66EE96E070EEA6E00016E51EA6403D0BB
:100C3000EA6EEF5003D0F76E0800F550200AD8B4E2
:100C400037D60D0AD8B489D6030AD8B45AD61E0AA4
:100C5000D8B449D7010AD8B446D7030AD8B443D781
:100C6000010AD8B440D7070AD8B43DD7010AD8B48E
:100C70003AD7030AD8B437D7010AD8B434D70F0A01
:100C8000D8B431D7010AD8B42ED7030AD8B42BD799
:100C9000010AD8B428D7070AD8B425D7010AD8B48E
:100CA00022D7030AD8B41FD7010AD8B41CD77F0AA9
:100CB000D8B419D7010AD8B416D7030AD8B413D7B1
:100CC000010AD8B410D7070AD8B40DD7010AD8B48E
:100CD0000AD7030AD8B407D7010AD8B404D70F0A31
:100CE000D8B401D7010AD8B4FED6030AD8B4FBD6CB
:100CF000010AD8B4F8D6070AD8B4F5D6010AD8B490
:100D0000F2D6030AD8B4EFD6010AD8B4ECD61F0A3B
:100D1000D8B4E9D6010AD8B4E6D6030AD8B4E3D6E3
:100D2000010AD8B4E0D6070AD8B4DDD6010AD8B48F
:100D3000DAD6030AD8B4D7D6010AD8B4D4D60F0A63
:100D4000D8B4D1D6010AD8B4CED6030AD8B4CBD6FB
:100D50003B0AD8B453D6030AD8B450D6010AD8B443
:100D60004DD6070AD8B44AD6010AD8B447D6030AE2
:100D7000D8B444D6010AD8B441D60F0AD8B43ED666
:100D8000010AD8B43BD6030AD8B438D6010AD8B47D
:100D900035D6070AD8B432D6010AD8B42FD6030AFA
:100DA000D8B42CD6010AD8B429D61F0AD8B426D66E
:100DB000010AD8B423D6030AD8B420D6010AD8B47D
:100DC0001DD6070AD8B41AD6010AD8B417D6030A12
:100DD000D8B414D6010AD8B411D60F0AD8B40ED696
:100DE000010AD8B40BD6030AD8B408D600D0000143
:100DF0000001892B00D0515000010001882500011D
:100E00006D6FE86AD8B0E82A000188BFE8060001E3
:100E10006E6F800E0001000189BF7F0E6F6F0001B1
:100E20006D5100010001895D00016E51800A0001D1
:100E30006F59D8B001D001D03BD0000100018951D9
:100E400000010001606F0001616B000160BF61077C
:100E5000000E00010001636F010E0001626F0001CE
:100E600034EC1DF0000100016051000100016B2510
:100E700000016D6F000100016151000100016C2152
:100E800000016E6F00016D51F66EE96E070EEA6E9D
:100E900000016E51EA6403D0EA6EEF5003D0F76EA2
:100EA0000800F5500009D8A401D001D092D600D096
:100EB00000010001895100010001606F0001616BB8
:100EC000000160BF6107000E00010001636F010EA9
:100ED0000001626F000134EC1DF00001000160515F
:100EE000000100016B2500016D6F000100016151DF
:100EF000000100016C2100016E6F00016D51F66E62
:100F0000E96E070EEA6E00016E51EA6403D0EA6EE4
:100F1000EF5003D0F76E0800F5502E0AD8B401D078
:100F200001D057D600D000016D6F000E0001000106
:100F3000876F00016D5100016D6F000E000100010F
:100F4000876F00016D51000100018751800A780F01
:100F5000D8A001D001D002D0C1D0C0D0000E000175
:100F60000001866F000E0001856F00016D6F000E9D
:100F700000010001896F00016D5100016D6F000ECD
:100F800000010001896F00016D5173D089C06DF0BF
:100F900087C06EF0000189C06FF00001706B6FBFF9
:100FA000700700016F1F701F6F4B702B51500001B5
:100FB0006F250001716F000E000170210001726F3A
:100FC000FF0E000171250001736FFF0E00017221F9
:100FD0000001746F00017D0E00017325D96E0001C0
:100FE000000E00017421DA6EDF500001756F000100
:100FF0006E2B03D00001D890753300016E2FFAD705
:10100000000175510001766F776B00016D2B04D0E4
:10101000D89000017637773700016D2FF9D789C056
:1010200078F0010E0001796F7A6B0001782B04D003
:10103000D890000179377A370001782FF9D700016D
:1010400076510001791500017B6F00017751000195
:101050007A1500017C6F00017B51000100018513AE
:1010600000017C5100010001861300010001892B61
:1010700000D0515000016D6F6E6B000189C06FF0A0
:101080000001706B6FBF700700017051800A000192
:10109000716F6D5100016F5D00016E51800A00019A
:1010A0007159D8A001D001D071D700D00001000142
:1010B000872900010001636F85C064F0000154ECD2
:1010C0001BF000010001872B000100018751800AFD
:1010D000780FD8A001D001D041D700D00001000185
:1010E000882B12000001EE6F000E01010101136F49
:1010F0000001EE51EBC0B4F0ECC0B5F0EDC0B6F0BD
:101100000001C4EC1DF000010001ED510001B61911
:101110000BE100010001EC510001B51905E10001EE
:101120000001EB510001B419D8B401D001D011D0A5
:101130000001EE6F2D0E01010101026F0001EE5161
:101140000001EE6F010E01010101136F0001EE516C
:1011500000D0EBC0B4F0ECC0B5F0EDC0B6F00001CB
:10116000C4EC1DF0B4C0EBF0B5C0ECF0B6C0EDF0CF
:10117000EBC099F0ECC09AF0EDC09BF0000198EC48
:101180001DF099C0A2F09AC0A3F09BC0A4F000018A
:101190001CEC12F000010001A22901010101146FF1
:1011A00001010101145101010101132500080A0F79
:1011B00001010101126F000E01010101016F000E1A
:1011C0000101006F0001EE6F000E01010101156FBA
:1011D0000001EE5101010101140501010101156F2A
:1011E0000101010115AF01D001D002D067D066D056
:1011F00015C168F00001C4EC1CF068C0DCF069C0E7
:10120000DDF06AC0DEF0000E00010001D96F200E93
:1012100000010001DA6F410E00010001DB6F0001E7
:10122000F6EC0EF0D9C00CF1DAC00DF1DBC00EF116
:101230000CC171F00DC172F00EC173F0EBC06EF015
:10124000ECC06FF0EDC070F0000121EC11F06EC049
:10125000A2F06FC0A3F070C0A4F000011CEC12F06B
:101260002B0E00010001A225F66E080E0001A3213D
:10127000F76E010101011351010115C1EEF00001EA
:10128000EF6BEEBFEF070001EE27000EEF23010129
:10129000020E0001EE25D96E0101010E0001EF21C1
:1012A000DA6E0800F5CFDFFF01010101150701012A
:1012B000010115AF01D001D09BD700D0EBC0A2F047
:1012C000ECC0A3F0EDC0A4F000011CEC12F0A2C031
:1012D00068F0A3C069F000014DEC1CF068C0B4F0E8
:1012E00069C0B5F06AC0B6F0EBC0B1F0ECC0B2F0C6
:1012F000EDC0B3F0000156EC1EF0B1C0B7F0B2C0C3
:10130000B8F0B3C0B9F000016AEC0AF07F0E00013A
:10131000B615B511B411D8B401D001D00FD0010168
:1013200001011451010D0101020EF324D96E0101D6
:10133000010EF420DA6E2E0EDF6E00D001010101E5
:1013400012AF01D001D002D0C4D0C3D0EBC0A2F004
:10135000ECC0A3F0EDC0A4F000011CEC12F0A2C0A0
:1013600068F0A3C069F000014DEC1CF068C0B1F05A
:1013700069C0B2F06AC0B3F0000156EC1EF0B1C013
:10138000B4F0B2C0B5F0B3C0B6F0EBC0B7F0ECC08B
:10139000B8F0EDC0B9F000016AEC0AF0B4C0EBF0AF
:1013A000B5C0ECF0B6C0EDF00001EE6F000E01012B
:1013B0000101156F0001EE5167D015C168F0000101
:1013C000C4EC1CF068C0DCF069C0DDF06AC0DEF07F
:1013D000000E00010001D96F200E00010001DA6F3C
:1013E000410E00010001DB6F0001F6EC0EF0D9C0E8
:1013F0000FF1DAC010F1DBC011F1EBC071F0ECC0FD
:1014000072F0EDC073F00FC16EF010C16FF011C13A
:1014100070F000010CEC10F06EC0A2F06FC0A3F0F1
:1014200070C0A4F000011CEC12F02B0E00010001B2
:10143000A225F66E080E0001A321F76E010101013D
:1014400014510101010115250001EE6FE86AD8B0C1
:10145000E82A010115BFE8060001EF6F010E000147
:10146000EE27000EEF230101020E0001EE25D96EDA
:101470000101010E0001EF21DA6E0800F5CFDFFF58
:1014800001010101152B00D0010101011551800A54
:101490000001EE6F010101011251800A0001EE5DB1
:1014A000D8A001D001D089D700D00001EE6F000E86
:1014B000010101010B6F0001EE510101010E00015C
:1014C00000016C6F0101020E00016B6F00013DEC29
:1014D00004F012000F0E0001BA6F0001B4C0BBF09F
:1014E0000001B5C0BCF00001B6C0BDF00001BA29D2
:1014F0000001BE6F05D00001D890BD33BC33BB33B3
:101500000001BE2FF8D70001BB5100010001C46FDC
:101510000F0E0001BA6F0001B7C0BBF00001B8C0E8
:10152000BCF00001B9C0BDF00001BA290001BE6FD6
:1015300005D00001D890BD33BC33BB330001BE2FB2
:10154000F8D70001BB5100010001C36F0001000189
:10155000C451D8B401D001D019D000010001C35149
:1015600000010001C46101D001D017D000010001C9
:10157000C451000800010001C3250001BA6F190E13
:101580000001BA5DD8A001D001D007D0B7C0B4F037
:10159000B8C0B5F0B9C0B6F078D100010001C351B0
:1015A000D8B401D001D019D000010001C45100010C
:1015B0000001C36101D001D017D000010001C35167
:1015C000000800010001C4250001BA6F190E0001D6
:1015D000BA5DD8A001D001D007D0B4C0B4F0B5C076
:1015E000B5F0B6C0B6F051D10001BA6F060E0001D9
:1015F0000001C26F0001BA5100010001B6AF01D075
:1016000001D004D000010001C28F00D00001000110
:10161000B9AF01D001D003D000010001C28D00019B
:101620000001B58FFF0E00010001B417FF0E00018D
:101630000001B517000E00010001B61700010001FE
:10164000B88FFF0E00010001B717FF0E0001000167
:10165000B817000E00010001B91700010001C351C5
:1016600000010001C46101D001D03AD000D00001D6
:10167000D8900001B7370001B8370001B937000131
:101680000001C30700010001C35100010001C4199A
:10169000D8B401D001D019D000010001C207000167
:1016A000C251070BD8A401D001D0E1D70ED00DD084
:1016B0000CD00001D8900001B6330001B533000111
:1016C000B43300010001C42B00D000010001C3515C
:1016D00000010001C46301D001D0EBD744D043D056
:1016E00000010001C45100010001C36101D001D01B
:1016F0003AD000D00001D8900001B4370001B537CE
:101700000001B63700010001C40700010001C35108
:1017100000010001C419D8B401D001D019D00001D2
:101720000001C2070001C251070BD8A401D001D0AB
:10173000E1D70ED00DD00CD00001D8900001B93304
:101740000001B8330001B73300010001C32B00D002
:1017500000010001C35100010001C46301D001D0A8
:10176000EBD701D000D000010001C2AF01D001D001
:1017700018D0FF0E00010001B41BFF0E0001000194
:10178000B51BFF0E00010001B61B010E0001000198
:10179000B427000E00010001B523000E0001000176
:1017A000B62300010001C2AD01D001D019D0FF0E57
:1017B00000010001B71BFF0E00010001B81BFF0E66
:1017C00000010001B91B010E00010001B727000E46
:1017D00000010001B823000E00010001B92300D070
:1017E0000001BA6F000E00010001C26F0001BA5182
:1017F00000010001B45100010001B7270001000100
:10180000B55100010001B82300010001B6510001EB
:101810000001B92300010001B9AF01D001D021D0EE
:10182000FF0E00010001B71BFF0E00010001B81BF5
:10183000FF0E00010001B91B010E00010001B727D6
:10184000000E00010001B823000E00010001B923C1
:101850000001BA6F010E00010001C26F0001BA5110
:1018600000D0B7C060F0B8C061F0B9C062F0C4C0C9
:1018700063F0C2C064F00001B2EC14F060C0B4F0D8
:1018800061C0B5F062C0B6F000D012007F0E00015A
:101890000001D2150001D1110001D011D8A401D04E
:1018A00001D00ED0000E00010001D06F800E0001AB
:1018B0000001D16F3F0E00010001D26F41D140D134
:1018C000720E00010001606F310E00010001616FB6
:1018D000440E00010001626FD0C063F0D1C064F01B
:1018E000D2C065F0000104EC19F0D8B001D001D0ED
:1018F00012D0000E4A6E220E496EFF0E000100014A
:10190000D06F7F0E00010001D16F7F0E000100013A
:10191000D26F16D115D1D0C060F0D1C061F0D2C065
:1019200062F0490E00010001636F3A0E00010001F0
:10193000646FC40E00010001656F000104EC19F032
:10194000D8B001D001D012D0000E4A6E220E496EDE
:10195000000E00010001D06F000E00010001D16FE8
:10196000000E00010001D26FEBD0EAD000010001AF
:10197000D251800A800F07E1000E0001D15D03E122
:10198000000E0001D05DD8A001D002D0010E01D020
:10199000000E00010001D86F00010001D851D8B439
:1019A00001D001D010D0D0C0B1F0D1C0B2F0D2C0BF
:1019B000B3F0000156EC1EF0B1C0D0F0B2C0D1F0CF
:1019C000B3C0D2F000D00001000E00010001866F0C
:1019D0000001D00E0001856FAA0E00010001876F83
:1019E000B80E00010001886F3F0E00010001896FF1
:1019F0000001EDEC1DF0D0C0C5F0D1C0C6F0D2C0E2
:101A0000C7F0000178EC15F0C5C0D3F0C6C0D4F023
:101A1000C7C0D5F0D3C0A2F0D4C0A3F0D5C0A4F005
:101A200000011CEC12F0A2C0D6F0A3C0D7F0000158
:101A3000000E00010001CC6F0001D00E0001CB6F41
:101A4000D6C068F0D7C069F000014DEC1CF068C04A
:101A5000CDF069C0CEF06AC0CFF0000110EC1EF0EE
:101A6000D0C085F0D1C086F0D2C087F0080E00014A
:101A70000001896F350E0001886F000E0001000122
:101A80008B6F090E00018A6F0001C4EC16F085C04F
:101A900094F086C095F087C096F0D6C097F0D7C076
:101AA00098F00001E6EC13F094C0D0F095C0D1F0AE
:101AB00096C0D2F000010001D851D8B401D001D0B5
:101AC00039D0FF0E00010001D0197F0ED8B4D11912
:101AD0007F0ED8B4D219D8A401D001D00ED0000EF8
:101AE00000010001D06F000E00010001D16F000E57
:101AF00000010001D26F24D023D0000E00010001AC
:101B00006E6F800E000100016F6F3F0E000100013B
:101B1000706FD0C071F0D1C072F0D2C073F000010C
:101B200021EC11F06EC0D0F06FC0D1F070C0D2F0D7
:101B300007D006D0D0C0D0F0D1C0D1F0D2C0D2F002
:101B400012000101086F000E010101011E6F010169
:101B50000851FBC060F0FCC061F0000175EC1EF0A4
:101B6000000160C008F1000161C009F1000E01012F
:101B700009BFFF0E0A6F0B6F00010001FE5101014A
:101B80000B1911E100010001FD5101010A190BE1DE
:101B900000010001FC510101091905E100010001EA
:101BA000FB5101010819D8B401D001D011D00101B5
:101BB000086F2D0E010101010D6F01010851010196
:101BC000086F010E010101011E6F0101085100D0D3
:101BD000FBC060F0FCC061F0000175EC1EF000017C
:101BE000000160C0FBF00001000161C0FCF00001D9
:101BF000000E0001FCBFFF0E0001FD6F0001FE6F33
:101C00000101086F000E010101011F6F0101085160
:101C10000101086F000E010101011F6F0101085150
:101C2000A7D0010101011E51010101011F25010180
:101C3000086FE86AD8B0E82A01011FBFE806010171
:101C4000096F0101081F091F084B092B080E01012C
:101C5000082500010001686F000E01010921000143
:101C6000696F00014DEC1CF068C017F169C018F1F4
:101C70006AC019F117C1DCF018C1DDF019C1DEF03E
:101C8000000E00010001D96F200E00010001DA6F83
:101C9000410E00010001DB6F0001F6EC0EF0D9C02F
:101CA0001AF1DAC01BF1DBC01CF11AC1A2F01BC192
:101CB000A3F01CC1A4F000011CEC12F0A2C0EFF0D4
:101CC000A3C0F0F0A4C0F1F0A5C0F2F0FBC0EBF0AF
:101CD000FCC0ECF0FDC0EDF0FEC0EEF000015AECEF
:101CE00017F0EBC000F1ECC001F1EDC002F1EEC065
:101CF00003F10A0E01010101046F000E0101056FDD
:101D0000000E0101066F000E0101076F0101FFECDB
:101D100019F0010101010051010101011D6F0101D3
:101D200001011D51010D2B0EF324F66E080EF42057
:101D3000F76E010101011E5101011FC108F10101EE
:101D4000096B08BF090701010827000E09230101DB
:101D50000D0E01010825D96E0101010E01010921B5
:101D6000DA6E0800F5CFDFFF010101011F2B00D063
:101D7000010101011E510101086F096B0101081FDA
:101D8000091F084B092B080E01010827000E092323
:101D900001011FC10AF101010B6B0ABF0B07010111
:101DA0000B51800A01010C6F085101010A5D01010C
:101DB0000951800A01010C59D8A001D001D031D7B6
:101DC00000D00101086F000E01010101166F010131
:101DD00008510101010E000100016C6F01010D0E9F
:101DE00000016B6F00013DEC04F012000001DF6F99
:101DF000000E00010001E66F0001DF517F0E0001BF
:101E00000001DB150001DA110001D911D8A401D0BD
:101E100001D02BD0000E00010001606F000E000108
:101E20000001616F000E00010001626FDCC063F011
:101E3000DDC064F0DEC065F0000104EC19F0D8A04C
:101E400001D001D004D0000E4A6E210E496E000E62
:101E500000010001D96F000E00010001DA6F000ED1
:101E600000010001DB6FD7D0D6D07F0E000100014A
:101E7000DE150001DD110001DC11D8A401D001D074
:101E80000ED0000E00010001D96F800E000100018C
:101E9000DA6F3F0E00010001DB6FBDD0BCD0000146
:101EA0000001DB51800A800F07E1000E0001DA5DBE
:101EB00003E1000E0001D95DD8B001D001D05AD0A5
:101EC000DCC0A2F0DDC0A3F0DEC0A4F000011CEC79
:101ED00012F0A2C0E7F0A3C0E8F0A4C0E9F0A5C0EA
:101EE000EAF0E7C068F0E8C069F0E9C06AF0EAC06B
:101EF0006BF00001ADEC1BF000010001DE510001B0
:101F00006A190BE100010001DD510001691905E1C9
:101F100000010001DC5100016819D8B401D001D0E2
:101F200012D0000E4A6E210E496E000E0001000113
:101F3000D96F000E00010001DA6F000E00010001F0
:101F4000DB6F69D068D000010001E751010B00018F
:101F50000001E66FD9C0B1F0DAC0B2F0DBC0B3F077
:101F6000000156EC1EF0B1C0D9F0B2C0DAF0B3C037
:101F7000DBF000D0D9C094F0DAC095F0DBC096F069
:101F800000010EEC13F094C0E0F095C0E1F096C0B3
:101F9000E2F0E0C06EF0E1C06FF0E2C070F0DCC0D3
:101FA00071F0DDC072F0DEC073F000010CEC10F0D7
:101FB0006EC0E3F06FC0E4F070C0E5F0E3C0D0F0B5
:101FC000E4C0D1F0E5C0D2F0000146EC0CF0D0C086
:101FD000D9F0D1C0DAF0D2C0DBF000010001E65147
:101FE000D8B401D001D011D0D9C0B1F0DAC0B2F06C
:101FF000DBC0B3F0000156EC1EF0B1C0D9F0B2C0A6
:10200000DAF0B3C0DBF007D006D0D9C0D9F0DAC01F
:10201000DAF0DBC0DBF012000F0E0001746F00017C
:102020006EC075F000016FC076F0000170C077F0EF
:10203000000174290001786F05D00001D890773332
:10204000763375330001782FF8D700017551000100
:1020500000017F6F00017F6701D001D00ED0000E1C
:10206000000100016E6F000E000100016F6F000E95
:1020700000010001706FE4D0E3D00F0E0001746F17
:10208000000171C075F0000172C076F0000173C0EC
:1020900077F0000174290001786F05D00001D89015
:1020A0007733763375330001782FF8D700017551F7
:1020B00000010001846F0001846701D001D00ED0BF
:1020C000000E000100016E6F000E000100016F6F35
:1020D000000E00010001706FB3D0B2D0000100010A
:1020E00084517B0F000100017F2770C084F0000144
:1020F000735100010001841B800E00010001841750
:10210000000100016F8F00010001728FFF0E0001BE
:1021100000017117FF0E000100017217000E00018F
:1021200000017317000E00010001806F000E000116
:102130000001816F000E00010001826F0001746FC9
:10214000070E00010001836F0001745100D00001EF
:1021500000016EA101D001D013D000010001715126
:1021600000010001802700010001725100010001FF
:10217000812300010001735100010001822300D07E
:102180000001D8900001703300016F3300016E33FD
:102190000001D890000171370001723700017337D8
:1021A00000010001832FD3D700D00001746F090E06
:1021B00000010001836F0001745100D00001000193
:1021C0006EA101D001D013D00001000171510001B6
:1021D00000018027000100017251000100018123EC
:1021E00000010001735100010001822300D00001B1
:1021F000D8900001703300016F3300016E3300018D
:10220000D890000182330001813300018033000146
:102210000001832FD3D700D080C060F081C061F06F
:1022200082C062F07FC063F084C064F00001B2EC51
:1022300014F060C06EF061C06FF062C070F000D04A
:1022400012000F0E0001746F00016EC075F00001E6
:102250006FC076F0000170C077F0000174290001B2
:10226000786F05D00001D89077337633753300014D
:10227000782FF8D70001755100010001836F00012C
:10228000836701D001D00ED0000E000100016E6FF7
:10229000000E000100016F6F000E00010001706F61
:1022A000CAD0C9D00F0E0001746F000171C075F063
:1022B000000172C076F0000173C077F0000174294C
:1022C0000001786F05D00001D890773376337533ED
:1022D0000001782FF8D70001755100010001846FCB
:1022E0000001846701D001D00ED0000E0001000172
:1022F0006E6F000E000100016F6F000E0001000103
:10230000706F99D098D0000E00010001806F000E10
:1023100000010001816F000E00010001826F0001C9
:1023200000018451890F00010001835F70C084F0B7
:102330000001735100010001841B800E00010001A7
:102340008417000100016F8FFF0E000100016E175E
:10235000FF0E000100016F17000E00010001701751
:1023600000010001728FFF0E000100017117FF0EC6
:10237000000100017217000E000100017317000137
:10238000746F180E000100017F6F0001745100018D
:10239000D8900001803700018137000182370001A9
:1023A00000017151000100016E5D000100017251D8
:1023B000000100016F59000100017351000100018B
:1023C0007059D8A001D001D015D000010001715181
:1023D000000100016E5F0001000172510001000167
:1023E0006F5B00010001735100010001705B00018F
:1023F000000180810001D89000016E3700016F3725
:1024000000017037000100017F2FC1D700D080C0CC
:1024100060F081C061F082C062F083C063F084C06C
:1024200064F00001B2EC14F060C06EF061C06FF0B7
:1024300062C070F000D012000F0E0001A66F000104
:10244000A2C0A7F00001A3C0A8F00001A4C0A9F099
:102450000001A6290001AA6F05D00001D890A93378
:10246000A833A7330001AA2FF8D70001A751000114
:102470000001B06F0001B06701D001D00FD0000E95
:1024800000010001A26F000E0001A36F000E000109
:10249000A46F000E0001A56FC0D0BFD0170E0001C1
:1024A000A66F0001A2C0A7F00001A3C0A8F0000120
:1024B000A4C0A9F00001A6290001AA6F05D000015F
:1024C000D890A933A833A7330001AA2FF8D7000169
:1024D000A75100010001AB6F00010001A38FFF0EA7
:1024E00000010001A217FF0E00010001A317000E5A
:1024F00000010001A41700010001A2510001000128
:10250000AC6F00010001A3510001AD6F0001A451A7
:102510000001AE6F0001AF6B8E0E00010001B05FD5
:1025200000010001B0AF01D001D029D000010001AD
:10253000B051800A8F0FD8B001D001D010D0000E5A
:1025400000010001A26F000E0001A36F000E000148
:10255000A46F000E0001A56F60D05FD000D0000115
:10256000D8900001AF330001AE330001AD3300015C
:10257000AC3300010001B03FF2D72ED02DD0170EA2
:1025800000010001B06501D001D01ED0000E000195
:102590000001A26F000E0001A36F000E0001A46FE6
:1025A000000E0001A56F39D038D00ED00001D890B0
:1025B0000001AC370001AD370001AE370001AF3785
:1025C00000010001B00700D000010001B06701D098
:1025D00001D0ECD701D000D000010001AB51D8B43C
:1025E00001D001D011D000010001AF1F0001AE1FCA
:1025F0000001AD1F0001AC6D000E0001AD23000114
:10260000AE230001AF2300D0ACC0A2F0ADC0A3F058
:10261000AEC0A4F0AFC0A5F000D0120000010001D0
:102620009651800A800F07E1000E0001955D03E1DD
:10263000000E0001945DD8B001D001D012D0000E80
:102640004A6E210E496E000E00010001946F000ECB
:1026500000010001956F000E00010001966FB5D0DA
:10266000B4D07F0E00010001961500019511000104
:102670009411D8A401D001D012D0000E4A6E220EBF
:10268000496E000E00010001946F000E0001000170
:10269000956F000E00010001966F97D096D0000E46
:1026A00000010001716F000E00010001726F400E09
:1026B00000010001736F0001000E00010001646F52
:1026C0000001970E0001636F94C060F095C061F047
:1026D00096C062F00001EAEC1AF060C06EF061C0D2
:1026E0006FF062C070F000010CEC10F06EC0B4F03E
:1026F0006FC0B5F070C0B6F0000E00010001B76FFA
:10270000800E00010001B86FBF0E00010001B96F1B
:1027100000016AEC0AF0B4C094F0B5C095F0B6C000
:1027200096F0000100019707D8A0980794C085F0A3
:1027300095C086F096C087F0080E00010001896FF1
:10274000530E0001886F000E000100018B6F080E10
:1027500000018A6F0001C4EC16F085C094F086C0B9
:1027600095F087C096F0720E00010001716F310E76
:1027700000010001726F3F0E00010001736F97C0EE
:1027800068F098C069F000014DEC1CF068C06EF074
:1027900069C06FF06AC070F000010CEC10F06EC000
:1027A000B4F06FC0B5F070C0B6F094C0B7F095C08B
:1027B000B8F096C0B9F000016AEC0AF0B4C094F029
:1027C000B5C095F0B6C096F000D012007F0E0001A3
:1027D000000196150001951100019411D8A401D0B3
:1027E00001D00ED0000E00010001946F000E000118
:1027F0000001956F000E00010001966FB2D0B1D0BC
:102800000001000196517F0B0001996FD8900001E3
:10281000993500019A6F00019B6B00019B37000105
:102820009A5100010001972700019B51000100010E
:102830009823000100019535E836010B0001996FDE
:1028400000019951000100019727000E0001982313
:102850000001000198AF01D001D013D0000E4A6EE4
:10286000220E496E000E00010001946F000E00015F
:102870000001956F000E00010001966F72D071D0BB
:1028800069D0000100019851800A7F0F000ED8B472
:10289000975DD8A001D001D033D0000E4A6E220E31
:1028A000496E000100019651800A800F07E1000E79
:1028B0000001955D03E1000E0001945DD8B001D0E8
:1028C00001D00FD0FF0E00010001946F7F0E0001B8
:1028D0000001956FFF0E00010001966F42D041D0BC
:1028E00039D0FF0E00010001946F7F0E000100013E
:1028F000956F7F0E00010001966F33D032D02AD041
:102900000001000198350001983100019A6F000123
:10291000000197310001996F0001000196510001FB
:102920009919800B991900010001966F97C099F0D1
:10293000010E00019917000199339933000100013C
:102940009551000199197F0B991900010001956FAC
:1029500001D000D094C094F095C095F096C096F048
:1029600000D01200000100016351D8B401D001D0A1
:102970000CD00001000160510001611100016211E1
:10298000D8A401D001D01CD000D0000E000100015D
:10299000606F000E00010001616F000E0001000178
:1029A000626FA5D0A4D00CD000010001632B000100
:1029B000D89000016233000161330001603300D020
:1029C000000E0001000160150001656F000E00019E
:1029D000000161150001666FFE0E00010001621525
:1029E0000001676F0001655166116711D8A401D01D
:1029F00001D0DAD719D018D000010001632B010EE5
:102A0000000100016027000E000100016123000E9B
:102A10000001000162230001D8900001623300012F
:102A200061330001603300D0000E00010001601529
:102A30000001656F000E0001000161150001666F65
:102A4000FF0E0001000162150001676F0001655172
:102A500066116711D8A401D001D0CED70DD00CD00B
:102A60000001000163070001D890000160370001F8
:102A700061370001623700D00001000161AF01D071
:102A800001D0EED70001000163B101D001D004D024
:102A900000010001619F00D00001D8906333000164
:102AA000000163510001676F666B656B0001655142
:102AB0000001000160130001665100010001611373
:102AC000000167510001000162130001000164511F
:102AD000D8B401D001D004D000010001628F00D031
:102AE00060C060F061C061F062C062F000D01200AE
:102AF000C5C060F0C6C061F0C7C062F00001000E42
:102B000000010001646F0001CB0E0001636F000142
:102B1000EAEC1AF000010001CCAF01D001D02DD0B9
:102B200000010001C751800A800F07E1000E00017B
:102B3000C65D03E1000E0001C55DD8B001D001D033
:102B40000ED0000E00010001C56F800E00010001D3
:102B5000C66FBF0E00010001C76F71D070D0000EAC
:102B600000010001C56F000E00010001C66F000EDC
:102B700000010001C76F63D062D0150E0001000193
:102B8000CB5D000E0001CC59D8A001D001D007D0F8
:102B9000C5C0C5F0C6C0C6F0C7C0C7F050D0C5C0DC
:102BA000A2F0C6C0A3F0C7C0A4F000011CEC12F054
:102BB000A2C0B1F0A3C0B2F0A4C0B3F0A5C0B4F0FD
:102BC000000175EC1AF0B1C0C8F0B2C0C9F0B3C0D2
:102BD000CAF0C5C060F0C6C061F0C7C062F0C8C02E
:102BE00063F0C9C064F0CAC065F0000104EC19F0DC
:102BF000D8B001D001D01DD0C8C0B4F0C9C0B5F064
:102C0000CAC0B6F0000E00010001B76F800E0001CF
:102C10000001B86FBF0E00010001B96F00016AEC3E
:102C20000AF0B4C0C5F0B5C0C6F0B6C0C7F007D052
:102C300006D0C8C0C5F0C9C0C6F0CAC0C7F01200EF
:102C40000600EACF2BF0E1CF2CF0E2CF2DF0D9CF68
:102C50002EF0DACF2FF0F3CF30F0F4CF31F0F6CF03
:102C600032F0F7CF33F0F8CF34F0F5CF35F0F2A4EF
:102C700001D001D01CD0F2AA01D001D018D0F2941A
:102C8000D59E4706D8A0480648504710D8A401D082
:102C900001D006D0276E000E4F6E2750B19005D0A0
:102CA000000ED76E000ED66E00D0D58E00D09EA03E
:102CB00001D001D021D09DA001D001D01DD0CD9058
:102CC0009E904B06D8A04C064C504B10D8A401D077
:102CD00001D00CD05050D8B401D001D003D037D09F
:102CE00036D004D079EC18F001D000D0000ECF6EB1
:102CF000000ECE6ECD8000D0A1A201D001D008D0B0
:102D0000A0A201D001D004D0A1924D4A4E2A00D0F9
:102D1000F2A201D001D008D0F2A801D001D004D095
:102D2000F29279EC18F000D0F0A001D001D005D0DB
:102D3000F0A601D001D001D0F090F0A201D001D0D6
:102D400006D0F0A801D001D002D0F09200D035C05A
:102D5000F5FF34C0F8FF33C0F7FF32C0F6FF31C0D3
:102D6000F4FF30C0F3FF2FC0DAFF2EC0D9FF2DC013
:102D7000E2FF2CC0E1FF2BC0EAFF2AC0E9FF29C017
:102D8000FBFF28C0FAFF11008AC060F08BC061F021
:102D9000000E00010001636F030E0001626F00016D
:102DA00034EC1DF000010001605100010001882594
:102DB00000018C6F000100016151000100018921B7
:102DC00000018D6F8CC0F6FF8DC0F7FF0900F5CFB5
:102DD0008EF00900F5CF8FF00900F5CF90F08EC08E
:102DE00091F08FC092F090C093F055D091C071F0E7
:102DF00092C072F093C073F085C06EF086C06FF021
:102E000087C070F000010CEC10F06EC0B4F06FC021
:102E1000B5F070C0B6F0000E00010001636F030E44
:102E20000001626F000100018A07D8A08B078AC0E9
:102E300060F08BC061F0000134EC1DF00001000176
:102E4000605100010001882500018C6F0001000124
:102E5000615100010001892100018D6F8CC0F6FFD6
:102E60008DC0F7FF0900F5CF8EF00900F5CF8FF088
:102E70000900F5CF90F08EC0B7F08FC0B8F090C0C9
:102E8000B9F000016AEC0AF0B4C091F0B5C092F05C
:102E9000B6C093F000D0000100018B518A11D8A474
:102EA00001D001D0A3D791C085F092C086F093C025
:102EB00087F01200000E00010001F46F000E000107
:102EC000F56F000E0001F66F000E0001F76F0001B4
:102ED0000001F251EF11F011F111D8B401D001D07D
:102EE00070D00001F36F010E00010001F86F0001C6
:102EF000F3510ED00001D8900001EF370001F037F8
:102F00000001F1370001F23700010001F82B00D079
:102F100000010001F2AF01D001D0ECD701D000D008
:102F20000001D8900001F4370001F5370001F637B1
:102F30000001F73700010001EF5100010001EB5DD6
:102F400000010001F05100010001EC5900010001F5
:102F5000F15100010001ED5900010001F2510001A1
:102F60000001EE59D8A001D001D01CD00001000111
:102F7000EF5100010001EB5F00010001F051000181
:102F80000001EC5B00010001F15100010001ED5B6B
:102F900000010001F25100010001EE5B000100019F
:102FA000F48100D00001D8900001F2330001F13328
:102FB0000001F0330001EF3300010001F82FB0D71A
:102FC00000D0F4C0EBF0F5C0ECF0F6C0EDF0F7C0C7
:102FD000EEF012000F0E186E12C019F013C01AF0A6
:102FE00014C01BF018281C6E04D0D8901B321A3263
:102FF00019321C2EFAD71950216E216601D001D04A
:1030000008D0000E126E000E136E000E146E70D0FB
:103010006FD00F0E186E15C019F016C01AF017C039
:103020001BF018281C6E04D0D8901B321A321932AB
:103030001C2EFAD71950226E226601D001D008D07A
:10304000000E126E000E136E000E146E51D050D092
:10305000000E1E6E000E1F6E000E206E2250890F95
:10306000215E14C022F01750221A800E2216138EF1
:10307000FF0E1216FF0E1316000E1416168EFF0EFC
:103080001516FF0E1616000E1716186E180E1D6E6A
:103090001850D8901E361F3620361550125C165028
:1030A000135817501458D8A001D001D007D015508C
:1030B000125E1650135A1750145A1E80D8901236AA
:1030C000133614361D2EE5D700D01EC001F01FC0E8
:1030D00002F020C003F021C004F022C005F088EC0B
:1030E00019F001C012F002C013F003C014F000D0B8
:1030F0001200236E010E506E2350D668D768000E62
:10310000B36E000EB26ED58EB180236E010E4F6E7F
:10311000235000D04F6601D001D0FCD700D04D50D5
:10312000236E4E50246E256A266A24C026F023C0E2
:1031300025F0246A236AB2502310096EB35024107C
:103140000A6E000E25100B6E000E26100C6EFDECA4
:103150001CF009C012F00AC013F00BC014F0000EEE
:10316000156E000E166E000E176EEAEC17F012C008
:1031700044F013C045F014C046F0898AD668D76879
:10318000000EB36E000EB26ED58EB180236E010EAE
:103190004F6E235000D04F6601D001D0FCD700D035
:1031A0004D50236E4E50246E256A266A24C026F0A8
:1031B00023C025F0246A236AB2502310096EB3504D
:1031C00024100A6E000E25100B6E000E26100C6ED9
:1031D000FDEC1CF009C012F00AC013F00BC014F093
:1031E000000E156E000E166E000E176EEAEC17F04C
:1031F00012C044F013C045F014C046F0899A236E03
:10320000000E506E235012000001000162AF01D089
:1032100001D022D0000160C066F0000161C067F0FB
:10322000000162C068F00001661F671F681F662BFF
:10323000000E67236823000E0001662500010001CF
:10324000606F000E000167210001616F800E0001B8
:1032500068210001626F00D00001000165AF01D05C
:1032600001D022D0000163C066F0000164C067F0A5
:10327000000165C068F00001661F671F681F662BAC
:10328000000E67236823000E00016625000100017F
:10329000636F000E000167210001646F800E000162
:1032A00068210001656F00D0000E00010001601B65
:1032B000000E00010001611B800E00010001621B75
:1032C000000E00010001631B000E00010001641BE1
:1032D000800E00010001651B000100016351000127
:1032E0000001605D000100016451000100016159AD
:1032F000000100016551000100016259D8B001D000
:1033000001D002D0D89003D0D88001D000D01200D4
:103310000450D8B401D001D008D0015002100310DD
:10332000D8A401D001D010D000D0000E016E000E44
:10333000026E000E036E62D061D006D0042AD890CF
:1033400003320232013200D0000E0114066E000E6C
:103350000214076EFE0E0314086E065007100810C4
:10336000D8A401D001D0EAD70DD00CD0042A010E88
:103370000126000E0222000E0322D89003320232F0
:10338000013200D0000E0114066E000E0214076E0A
:10339000FF0E0314086E065007100810D8A401D0C1
:1033A00001D0E4D707D006D00406D8900136023603
:1033B000033600D002AE01D001D0F6D704B001D060
:1033C00001D002D0029E00D0D89004320450086E82
:1033D000076A066A065001120750021208500312CB
:1033E0000550D8B401D001D002D0038E00D001C066
:1033F00001F002C002F003C003F000D0120001018E
:1034000001010751041105110611D8B401D001D0F2
:1034100063D00001F96F010E00010001FA6F000195
:10342000F9510ED00101D89001010437010105378F
:10343000010106370101073700010001FA2B00D016
:103440000101010107AF01D001D0ECD701D000D0BC
:1034500001010101045101010101005D01010101AE
:10346000055101010101015901010101065101014B
:103470000101025901010101075101010101035933
:10348000D8A001D001D019D00101010104510101DE
:103490000101005F01010101055101010101015B11
:1034A00001010101065101010101025B010101015C
:1034B000075101010101035B00D00101D890010116
:1034C0000733010106330101053301010433000113
:1034D0000001FA2FBDD700D000C100F101C101F1F8
:1034E00002C102F103C103F112000001B56F000E29
:1034F00000010001BA6F0001B5510001B56F8E0ED9
:1035000000010001B96F0001B55100010001B4AF25
:1035100001D001D028D000010001B41F0001B31F69
:103520000001B21F0001B16D000E0001B2230001C5
:10353000B3230001B4230001B56F010E00010001A7
:10354000BA6F0001B5510FD00ED00001D890000124
:10355000B4330001B3330001B2330001B1330001D1
:103560000001B92B00D0000E00010001B1150001CF
:10357000B56F000E00010001B2150001B66F000E1C
:1035800000010001B3150001B76FFF0E000100013B
:10359000B4150001B86F0001B851B511B611B711DB
:1035A000D8A401D001D0D1D700D0B1C060F0B2C052
:1035B00061F0B3C062F0B9C063F0BAC064F000015A
:1035C000B2EC14F060C0B1F061C0B2F062C0B3F010
:1035D00000D012007F0E0001000162150001611190
:1035E00000016011D8A401D001D016D063C0D9FF6A
:1035F00064C0DAFF000EDE6E000EDD6E000E00010C
:103600000001606F000E00010001616F000E0001FB
:103610000001626F48D047D00001000162517F0B6A
:103620000001656FD890000165350001666F0001EB
:10363000676B0001673763C0D9FF64C0DAFF66C0FB
:10364000DEFF67C0DDFF000100016135E836010BD8
:103650000001656F0001655163C0D9FF64C0DAFFE6
:10366000DE12000EDD1263C0D9FF64C0DAFF820EE5
:10367000DE26FF0EDD22000162810001628300016F
:10368000628500016287000162890001628B00018E
:10369000629D00010001619F60C060F061C061F047
:1036A00062C062F000D012008996A8EC1EF0000102
:1036B000656F000E000100016A6F00016551000195
:1036C00000016451000163C065F00001666B65C0D4
:1036D00066F00001656B0001651100010001686F73
:1036E000000166510001696F0001656F0F0E000156
:1036F00000016A6F00016551000100016AAF01D04D
:1037000001D002D025D024D06AC065F0000168C085
:1037100066F0000169C067F00001652B04D000016C
:10372000D890673366330001652FF9D700016651E1
:10373000010B00010001626F000190EC1EF000011E
:1037400000016A07000100016AAF01D001D0DCD797
:103750008986A8EC1EF08996120000016C6F8E0E0F
:1037600000010001706F00016C510ED00001D89073
:1037700000016B3300016A330001693300016833D3
:1037800000010001702B00D0000E0001000168153F
:1037900000016C6F000E00010001691500016D6FE2
:1037A000000E000100016A1500016E6FFF0E00019E
:1037B00000016B1500016F6F00016F516C116D11ED
:1037C0006E11D8A401D001D0D1D700D068C060F06C
:1037D00069C061F06AC062F070C063F000016C6F94
:1037E000000E00010001646F00016C510001B2EC99
:1037F00014F060C068F061C069F062C06AF000D087
:1038000012006DC051F0929092829294929689909B
:103810008994899600016F6F0B0E00010001636FA0
:1038200000016F51000100016D0500010001646F8E
:10383000000154EC1BF000016F6F090E0001000144
:10384000636F00016F510001706F000E00010001F5
:10385000646F00017051000154EC1BF000016F6FA8
:10386000000E000100016B6F00016F510001CEECF2
:103870001EF000016F6F0C0E00010001636F00016C
:103880006F510001706FFF0E00010001646F0001B5
:103890007051000154EC1BF0120000016B6F000E20
:1038A000000100016D6F00016B510001000169AF63
:1038B00001D001D010D000010001686D0001691F26
:1038C000D8B0692B00016B6F010E000100016D6F14
:1038D00000016B5100D00001000168C060F00001E0
:1038E000000169C061F000010001626B00016B6FB3
:1038F0008E0E00010001636F00016B516DC064F01A
:103900000001B2EC14F060C068F061C069F062C000
:103910006AF000D0120068EC1DF00001FF6F0F0E7E
:10392000000100016B6F0001FF510001C0EC1EF0AF
:10393000080E000100016C6F6E0E00016B6F00013C
:103940003DEC04F04E0E00010001FB6F610E000122
:10395000FC6FBC0E0001FD6F000E0001FE6F000148
:10396000A1EC0DF0100E00010001EB6F2F0E000115
:103970000001EC6F420E00010001ED6F000172ECDE
:1039800008F0FFD70CEF00F000016B6F000E000194
:1039900000016D6F00016B510001000168AF01D0A3
:1039A00001D00CD000010001686D00016B6F010EA9
:1039B000000100016D6F00016B5100D0000100019A
:1039C000685100010001606F0001616B0001626BD2
:1039D00000016B6F8E0E00010001636F00016B51DF
:1039E0006DC064F00001B2EC14F060C068F061C01A
:1039F00069F062C06AF000D012000D6E8E0E116E7A
:103A00000D5007D0D8900C320B320A320932112AED
:103A100000D0000E09140D6E000E0A140E6E000E7A
:103A20000B140F6EFF0E0C14106E10500D100E10B4
:103A30000F10D8A401D001D0E5D700D009C001F003
:103A40000AC002F00BC003F011C004F00D6E000EAE
:103A5000056E0D5088EC19F001C009F002C00AF0A3
:103A600003C00BF000D01200000E00010001656FD2
:103A7000000E0001646F00D00001000160A101D0C0
:103A800001D00DD000010001625100010001642746
:103A900000010001635100010001652300D0000115
:103AA00000010001D8906237633700010001000176
:103AB000D890613360330001000161516011D8A4D6
:103AC00001D001D0D9D764C060F065C061F01200A8
:103AD000F28EF28CF288F086F088F292F090F092FA
:103AE000F19CF19AF198D59CD59AF28AF294B1841E
:103AF000B182B18EB196B19CA082A192CD8ECD84BF
:103B0000CD92CD96CD949D809E90000E0001000137
:103B10006E6F080E00016D6F000101EC1CF0F19E4C
:103B200093809382938493869288929A899A1200C2
:103B300099C094F09AC095F09BC096F000010EECED
:103B400013F094C09FF095C0A0F096C0A1F09FC064
:103B50006EF0A0C06FF0A1C070F05C0E000100011B
:103B6000716FDE0E00010001726F3E0E0001000158
:103B7000736F00010CEC10F06EC099F06FC09AF0FA
:103B800070C09BF000D0120000010001B651800A05
:103B9000800F07E1000E0001B55D03E1000E00019A
:103BA000B45DD8B001D001D011D0B4C0B1F0B5C06F
:103BB000B2F0B6C0B3F0000156EC1EF0B1C0B4F0E4
:103BC000B2C0B5F0B3C0B6F007D006D0B4C0B4F000
:103BD000B5C0B5F0B6C0B6F0120085C0D9FF86C03A
:103BE000DAFF0001DECF6EF00001DECF6FF00001E2
:103BF000DDCF70F087C071F088C072F089C073F0BB
:103C000000010CEC10F085C0D9FF86C0DAFF6EC051
:103C1000DEFF6FC0DEFF70C0DDFFDD5200D012009E
:103C2000CBC0D9FFCCC0DAFF0001DECFC5F0000168
:103C3000DECFC6F00001DDCFC7F0CDC0C8F0CEC0EA
:103C4000C9F0CFC0CAF0000133EC1EF0CBC0D9FFE1
:103C5000CCC0DAFFC5C0DEFFC6C0DEFFC7C0DDFFD7
:103C6000DD5200D01200000E00010001C81B000E42
:103C700000010001C91B800E00010001CA1BC5C064
:103C8000B4F0C6C0B5F0C7C0B6F0C8C0B7F0C9C080
:103C9000B8F0CAC0B9F000016AEC0AF0B4C0C5F0CF
:103CA000B5C0C6F0B6C0C7F000D012007F0E00014C
:103CB0000001B3150001B2110001B111D8B401D057
:103CC00001D00CD0000E00010001B11B000E00015C
:103CD0000001B21B800E00010001B31BB1C0B1F0A6
:103CE000B2C0B2F0B3C0B3F012000001000161AF86
:103CF00001D001D010D0000160C062F0000161C0AD
:103D000063F00001621F631F624B632B62C060F0AF
:103D100063C061F004D060C060F061C061F0120067
:103D200089948990A8EC1EF00001000162A101D0E5
:103D300089800001000162B101D08990A8EC1EF0D9
:103D40008984A8EC1EF08994A8EC1EF089901200DA
:103D5000000E00010001616F050E0001606F01D0CF
:103D600000D0000100016007D8A0610700016029B0
:103D7000D8B46129D8A401D001D0F3D700D0120063
:103D800000016C6F0A0E00010001636F00016C51AD
:103D90006BC064F0000154EC1BF0120000016C6F6A
:103DA0000F0E00010001636F00016C516BC064F0E5
:103DB000000154EC1BF0120000EE36F01B0EEE6A10
:0E3DC000E806FDE1000EF86E00018BEF1CF02E
:020000040020DA
:08000000FFFFFFFFFFFFFFFF00
:020000040030CA
:0E000000000C1F1FFF8185FF0FC00FE00F4097
:00000001FF
