:020000000F28C7
:10000800DE00030E8312A2000408A3000A08A4005D
:100018005F08A50014288316FF2390008312FA288E
:1000280083160C1C182819288B2883120C1C1D28D1
:100038001E288B280C1010100130AC070030031854
:100048000130AD07003003180130AE070030031847
:100058000130AF0700302F06031D3C2800302E0664
:10006800031D3C2800302D06031D3C2801302C06BA
:10007800031D3F28402847289F308F00FF308E00FF
:10008800101408218B2801308312AC0700300318A4
:100098000130AD07003003180130AE0700300318F7
:1000A8000130AF0700302F02031D642800302E02F4
:1000B800031D642800302D02031D642802302C0221
:1000C800031C672868286C280521EC20C8208B2889
:1000D80001308312AC07003003180130AD0700303F
:1000E80003180130AE07003003180130AF072F089E
:1000F8002E042D042C04031D822883288B288E01AE
:100108008F01101408218B288B288B288B288B1C97
:100118008E288F28BC280B1E92289328BC288B1069
:100128008312101C982899289D28023085060821DA
:10013800BC28002183128514A601A701A428A4289D
:1001480001308312A6070318A70A0030A70727085B
:10015800803ADF0081305F02031DB428F4302602A4
:10016800031CB728B828A428B9280821BC28BC280B
:1001780083122508DF0024088A0023088400220E41
:100188008300DE0E5E0E09000B168312A001A1018A
:10019800CF28CF28CF2801308312A0070318A10A3F
:1001A8000030A1072108803ADF0080305F02031D7C
:1001B800DF2814302002031CE228E328CF28E42893
:1001C800023083128506A001A101CF28CF2808009C
:1001D8000B12831210108E018F010030AF00003017
:1001E800AE000030AD000030AC000800AC01AD013D
:1001F800AE01AF0183010A290521EC2083121014F6
:0E0208000800831210100800082908000F28B3
:02400E009431EB
:00000001FF
